{
  "_format": "hh-sol-artifact-1",
  "contractName": "GymSubscription",
  "sourceName": "contracts/GymSubscription.sol",
  "abi": [
    {
      "inputs": [
        {
          "internalType": "address",
          "name": "gymStoreContract",
          "type": "address"
        }
      ],
      "stateMutability": "nonpayable",
      "type": "constructor"
    },
    {
      "anonymous": false,
      "inputs": [
        {
          "indexed": true,
          "internalType": "address",
          "name": "owner",
          "type": "address"
        },
        {
          "indexed": true,
          "internalType": "address",
          "name": "approved",
          "type": "address"
        },
        {
          "indexed": true,
          "internalType": "uint256",
          "name": "tokenId",
          "type": "uint256"
        }
      ],
      "name": "Approval",
      "type": "event"
    },
    {
      "anonymous": false,
      "inputs": [
        {
          "indexed": true,
          "internalType": "address",
          "name": "owner",
          "type": "address"
        },
        {
          "indexed": true,
          "internalType": "address",
          "name": "operator",
          "type": "address"
        },
        {
          "indexed": false,
          "internalType": "bool",
          "name": "approved",
          "type": "bool"
        }
      ],
      "name": "ApprovalForAll",
      "type": "event"
    },
    {
      "anonymous": false,
      "inputs": [
        {
          "indexed": false,
          "internalType": "uint256",
          "name": "_fromTokenId",
          "type": "uint256"
        },
        {
          "indexed": false,
          "internalType": "uint256",
          "name": "_toTokenId",
          "type": "uint256"
        }
      ],
      "name": "BatchMetadataUpdate",
      "type": "event"
    },
    {
      "anonymous": false,
      "inputs": [
        {
          "indexed": false,
          "internalType": "uint256",
          "name": "_tokenId",
          "type": "uint256"
        }
      ],
      "name": "MetadataUpdate",
      "type": "event"
    },
    {
      "anonymous": false,
      "inputs": [
        {
          "indexed": true,
          "internalType": "address",
          "name": "from",
          "type": "address"
        },
        {
          "indexed": true,
          "internalType": "address",
          "name": "to",
          "type": "address"
        },
        {
          "indexed": true,
          "internalType": "uint256",
          "name": "tokenId",
          "type": "uint256"
        }
      ],
      "name": "Transfer",
      "type": "event"
    },
    {
      "inputs": [
        {
          "internalType": "uint256",
          "name": "_storeId",
          "type": "uint256"
        }
      ],
      "name": "GetStoreAddressForSubscription",
      "outputs": [
        {
          "internalType": "uint256",
          "name": "",
          "type": "uint256"
        },
        {
          "internalType": "string",
          "name": "",
          "type": "string"
        },
        {
          "internalType": "string",
          "name": "",
          "type": "string"
        },
        {
          "internalType": "string",
          "name": "",
          "type": "string"
        },
        {
          "internalType": "string",
          "name": "",
          "type": "string"
        },
        {
          "internalType": "address",
          "name": "",
          "type": "address"
        },
        {
          "internalType": "uint256",
          "name": "",
          "type": "uint256"
        }
      ],
      "stateMutability": "view",
      "type": "function"
    },
    {
      "inputs": [],
      "name": "GetStoreIdForSubscription",
      "outputs": [
        {
          "internalType": "uint256",
          "name": "",
          "type": "uint256"
        }
      ],
      "stateMutability": "view",
      "type": "function"
    },
    {
      "inputs": [
        {
          "internalType": "uint256",
          "name": "_storeId",
          "type": "uint256"
        }
      ],
      "name": "GetSubscriptionData",
      "outputs": [
        {
          "components": [
            {
              "internalType": "uint256",
              "name": "tokenId",
              "type": "uint256"
            },
            {
              "internalType": "uint256",
              "name": "storeId",
              "type": "uint256"
            },
            {
              "internalType": "string",
              "name": "memberName",
              "type": "string"
            },
            {
              "internalType": "string",
              "name": "image",
              "type": "string"
            },
            {
              "internalType": "string",
              "name": "ipfsHash",
              "type": "string"
            },
            {
              "internalType": "address",
              "name": "owner",
              "type": "address"
            },
            {
              "internalType": "uint256",
              "name": "createdAt",
              "type": "uint256"
            },
            {
              "internalType": "uint256",
              "name": "invalidAfter",
              "type": "uint256"
            }
          ],
          "internalType": "struct GymSubscription.storeSubscription[]",
          "name": "",
          "type": "tuple[]"
        }
      ],
      "stateMutability": "view",
      "type": "function"
    },
    {
      "inputs": [
        {
          "internalType": "address",
          "name": "to",
          "type": "address"
        },
        {
          "internalType": "uint256",
          "name": "tokenId",
          "type": "uint256"
        }
      ],
      "name": "approve",
      "outputs": [],
      "stateMutability": "nonpayable",
      "type": "function"
    },
    {
      "inputs": [
        {
          "internalType": "address",
          "name": "owner",
          "type": "address"
        }
      ],
      "name": "balanceOf",
      "outputs": [
        {
          "internalType": "uint256",
          "name": "",
          "type": "uint256"
        }
      ],
      "stateMutability": "view",
      "type": "function"
    },
    {
      "inputs": [
        {
          "internalType": "uint256",
          "name": "storeId",
          "type": "uint256"
        },
        {
          "internalType": "string",
          "name": "memberName",
          "type": "string"
        },
        {
          "internalType": "string",
          "name": "image",
          "type": "string"
        },
        {
          "internalType": "string",
          "name": "ipfsHash",
          "type": "string"
        },
        {
          "internalType": "address",
          "name": "ownerAddress",
          "type": "address"
        },
        {
          "internalType": "uint256",
          "name": "invalidAfter",
          "type": "uint256"
        }
      ],
      "name": "createSubscription",
      "outputs": [],
      "stateMutability": "nonpayable",
      "type": "function"
    },
    {
      "inputs": [
        {
          "internalType": "uint256",
          "name": "tokenId",
          "type": "uint256"
        }
      ],
      "name": "getApproved",
      "outputs": [
        {
          "internalType": "address",
          "name": "",
          "type": "address"
        }
      ],
      "stateMutability": "view",
      "type": "function"
    },
    {
      "inputs": [
        {
          "internalType": "address",
          "name": "userAddr",
          "type": "address"
        }
      ],
      "name": "hasStoreSubscription",
      "outputs": [
        {
          "internalType": "bool",
          "name": "",
          "type": "bool"
        }
      ],
      "stateMutability": "view",
      "type": "function"
    },
    {
      "inputs": [
        {
          "internalType": "address",
          "name": "owner",
          "type": "address"
        },
        {
          "internalType": "address",
          "name": "operator",
          "type": "address"
        }
      ],
      "name": "isApprovedForAll",
      "outputs": [
        {
          "internalType": "bool",
          "name": "",
          "type": "bool"
        }
      ],
      "stateMutability": "view",
      "type": "function"
    },
    {
      "inputs": [
        {
          "internalType": "uint256",
          "name": "val",
          "type": "uint256"
        }
      ],
      "name": "makePaymentToStore",
      "outputs": [],
      "stateMutability": "nonpayable",
      "type": "function"
    },
    {
      "inputs": [],
      "name": "name",
      "outputs": [
        {
          "internalType": "string",
          "name": "",
          "type": "string"
        }
      ],
      "stateMutability": "view",
      "type": "function"
    },
    {
      "inputs": [
        {
          "internalType": "uint256",
          "name": "tokenId",
          "type": "uint256"
        }
      ],
      "name": "ownerOf",
      "outputs": [
        {
          "internalType": "address",
          "name": "",
          "type": "address"
        }
      ],
      "stateMutability": "view",
      "type": "function"
    },
    {
      "inputs": [
        {
          "internalType": "address",
          "name": "from",
          "type": "address"
        },
        {
          "internalType": "address",
          "name": "to",
          "type": "address"
        },
        {
          "internalType": "uint256",
          "name": "tokenId",
          "type": "uint256"
        }
      ],
      "name": "safeTransferFrom",
      "outputs": [],
      "stateMutability": "nonpayable",
      "type": "function"
    },
    {
      "inputs": [
        {
          "internalType": "address",
          "name": "from",
          "type": "address"
        },
        {
          "internalType": "address",
          "name": "to",
          "type": "address"
        },
        {
          "internalType": "uint256",
          "name": "tokenId",
          "type": "uint256"
        },
        {
          "internalType": "bytes",
          "name": "data",
          "type": "bytes"
        }
      ],
      "name": "safeTransferFrom",
      "outputs": [],
      "stateMutability": "nonpayable",
      "type": "function"
    },
    {
      "inputs": [
        {
          "internalType": "address",
          "name": "operator",
          "type": "address"
        },
        {
          "internalType": "bool",
          "name": "approved",
          "type": "bool"
        }
      ],
      "name": "setApprovalForAll",
      "outputs": [],
      "stateMutability": "nonpayable",
      "type": "function"
    },
    {
      "inputs": [
        {
          "internalType": "bytes4",
          "name": "interfaceId",
          "type": "bytes4"
        }
      ],
      "name": "supportsInterface",
      "outputs": [
        {
          "internalType": "bool",
          "name": "",
          "type": "bool"
        }
      ],
      "stateMutability": "view",
      "type": "function"
    },
    {
      "inputs": [],
      "name": "symbol",
      "outputs": [
        {
          "internalType": "string",
          "name": "",
          "type": "string"
        }
      ],
      "stateMutability": "view",
      "type": "function"
    },
    {
      "inputs": [
        {
          "internalType": "uint256",
          "name": "tokenId",
          "type": "uint256"
        }
      ],
      "name": "tokenURI",
      "outputs": [
        {
          "internalType": "string",
          "name": "",
          "type": "string"
        }
      ],
      "stateMutability": "view",
      "type": "function"
    },
    {
      "inputs": [
        {
          "internalType": "address",
          "name": "from",
          "type": "address"
        },
        {
          "internalType": "address",
          "name": "to",
          "type": "address"
        },
        {
          "internalType": "uint256",
          "name": "tokenId",
          "type": "uint256"
        }
      ],
      "name": "transferFrom",
      "outputs": [],
      "stateMutability": "nonpayable",
      "type": "function"
    },
    {
      "inputs": [
        {
          "internalType": "uint256",
          "name": "sId",
          "type": "uint256"
        },
        {
          "internalType": "address",
          "name": "transferAddr",
          "type": "address"
        }
      ],
      "name": "transferSubscription",
      "outputs": [
        {
          "internalType": "bool",
          "name": "",
          "type": "bool"
        }
      ],
      "stateMutability": "nonpayable",
      "type": "function"
    }
  ],
  "bytecode": "0x608060405260016008553480156200001657600080fd5b50604051620040be380380620040be83398181016040528101906200003c919062000180565b6040518060400160405280601281526020017f47796d537562736372697074696f6e4e465400000000000000000000000000008152506040518060400160405280600481526020017f47534654000000000000000000000000000000000000000000000000000000008152508160009081620000b991906200042c565b508060019081620000cb91906200042c565b50505080600760006101000a81548173ffffffffffffffffffffffffffffffffffffffff021916908373ffffffffffffffffffffffffffffffffffffffff1602179055505062000513565b600080fd5b600073ffffffffffffffffffffffffffffffffffffffff82169050919050565b600062000148826200011b565b9050919050565b6200015a816200013b565b81146200016657600080fd5b50565b6000815190506200017a816200014f565b92915050565b60006020828403121562000199576200019862000116565b5b6000620001a98482850162000169565b91505092915050565b600081519050919050565b7f4e487b7100000000000000000000000000000000000000000000000000000000600052604160045260246000fd5b7f4e487b7100000000000000000000000000000000000000000000000000000000600052602260045260246000fd5b600060028204905060018216806200023457607f821691505b6020821081036200024a5762000249620001ec565b5b50919050565b60008190508160005260206000209050919050565b60006020601f8301049050919050565b600082821b905092915050565b600060088302620002b47fffffffffffffffffffffffffffffffffffffffffffffffffffffffffffffffff8262000275565b620002c0868362000275565b95508019841693508086168417925050509392505050565b6000819050919050565b6000819050919050565b60006200030d620003076200030184620002d8565b620002e2565b620002d8565b9050919050565b6000819050919050565b6200032983620002ec565b62000341620003388262000314565b84845462000282565b825550505050565b600090565b6200035862000349565b620003658184846200031e565b505050565b5b818110156200038d57620003816000826200034e565b6001810190506200036b565b5050565b601f821115620003dc57620003a68162000250565b620003b18462000265565b81016020851015620003c1578190505b620003d9620003d08562000265565b8301826200036a565b50505b505050565b600082821c905092915050565b60006200040160001984600802620003e1565b1980831691505092915050565b60006200041c8383620003ee565b9150826002028217905092915050565b6200043782620001b2565b67ffffffffffffffff811115620004535762000452620001bd565b5b6200045f82546200021b565b6200046c82828562000391565b600060209050601f831160018114620004a457600084156200048f578287015190505b6200049b85826200040e565b8655506200050b565b601f198416620004b48662000250565b60005b82811015620004de57848901518255600182019150602085019450602081019050620004b7565b86831015620004fe5784890151620004fa601f891682620003ee565b8355505b6001600288020188555050505b505050505050565b613b9b80620005236000396000f3fe608060405234801561001057600080fd5b506004361061012c5760003560e01c806370a08231116100ad578063b88d4fde11610071578063b88d4fde1461036b578063c87b56dd14610387578063e985e9c5146103b7578063ee1f45f7146103e7578063ef50f6a8146104055761012c565b806370a08231146102b557806395d89b41146102e5578063a0ed6bc614610303578063a22cb46514610333578063ad2eef0e1461034f5761012c565b806323b872dd116100f457806323b872dd146102015780633bab61f01461021d57806342842e0e146102395780636195b657146102555780636352211e146102855761012c565b806301ffc9a71461013157806306fdde0314610161578063081812fc1461017f578063095ea7b3146101af578063114e2e41146101cb575b600080fd5b61014b60048036038101906101469190612450565b610435565b6040516101589190612498565b60405180910390f35b610169610496565b6040516101769190612543565b60405180910390f35b6101996004803603810190610194919061259b565b610528565b6040516101a69190612609565b60405180910390f35b6101c960048036038101906101c49190612650565b61056e565b005b6101e560048036038101906101e0919061259b565b610685565b6040516101f8979695949392919061269f565b60405180910390f35b61021b6004803603810190610216919061272a565b61074a565b005b610237600480360381019061023291906128b2565b6107aa565b005b610253600480360381019061024e919061272a565b610956565b005b61026f600480360381019061026a9190612993565b610976565b60405161027c9190612498565b60405180910390f35b61029f600480360381019061029a919061259b565b610a2b565b6040516102ac9190612609565b60405180910390f35b6102cf60048036038101906102ca9190612993565b610ab1565b6040516102dc91906129c0565b60405180910390f35b6102ed610b68565b6040516102fa9190612543565b60405180910390f35b61031d600480360381019061031891906129db565b610bfa565b60405161032a9190612498565b60405180910390f35b61034d60048036038101906103489190612a47565b610cc5565b005b6103696004803603810190610364919061259b565b610cdb565b005b61038560048036038101906103809190612b28565b610e56565b005b6103a1600480360381019061039c919061259b565b610eb8565b6040516103ae9190612543565b60405180910390f35b6103d160048036038101906103cc9190612bab565b610fca565b6040516103de9190612498565b60405180910390f35b6103ef61105e565b6040516103fc91906129c0565b60405180910390f35b61041f600480360381019061041a919061259b565b6110f6565b60405161042c9190612dd3565b60405180910390f35b6000634906490660e01b7bffffffffffffffffffffffffffffffffffffffffffffffffffffffff1916827bffffffffffffffffffffffffffffffffffffffffffffffffffffffff1916148061048f575061048e82611446565b5b9050919050565b6060600080546104a590612e24565b80601f01602080910402602001604051908101604052809291908181526020018280546104d190612e24565b801561051e5780601f106104f35761010080835404028352916020019161051e565b820191906000526020600020905b81548152906001019060200180831161050157829003601f168201915b5050505050905090565b600061053382611528565b6004600083815260200190815260200160002060009054906101000a900473ffffffffffffffffffffffffffffffffffffffff169050919050565b600061057982610a2b565b90508073ffffffffffffffffffffffffffffffffffffffff168373ffffffffffffffffffffffffffffffffffffffff16036105e9576040517f08c379a00000000000000000000000000000000000000000000000000000000081526004016105e090612ec7565b60405180910390fd5b8073ffffffffffffffffffffffffffffffffffffffff16610608611573565b73ffffffffffffffffffffffffffffffffffffffff161480610637575061063681610631611573565b610fca565b5b610676576040517f08c379a000000000000000000000000000000000000000000000000000000000815260040161066d90612f59565b60405180910390fd5b610680838361157b565b505050565b6000606080606080600080600760009054906101000a900473ffffffffffffffffffffffffffffffffffffffff1673ffffffffffffffffffffffffffffffffffffffff166383403120896040518263ffffffff1660e01b81526004016106eb91906129c0565b600060405180830381865afa158015610708573d6000803e3d6000fd5b505050506040513d6000823e3d601f19601f820116820180604052508101906107319190613013565b9650965096509650965096509650919395979092949650565b61075b610755611573565b82611634565b61079a576040517f08c379a000000000000000000000000000000000000000000000000000000000815260040161079190613197565b60405180910390fd5b6107a58383836116c9565b505050565b600073ffffffffffffffffffffffffffffffffffffffff168273ffffffffffffffffffffffffffffffffffffffff16036107e2573391505b6000600854905060006040518061010001604052808381526020018981526020018881526020018781526020018681526020018573ffffffffffffffffffffffffffffffffffffffff1681526020014281526020018481525090506009819080600181540180825580915050600190039060005260206000209060080201600090919091909150600082015181600001556020820151816001015560408201518160020190816108929190613363565b5060608201518160030190816108a89190613363565b5060808201518160040190816108be9190613363565b5060a08201518160050160006101000a81548173ffffffffffffffffffffffffffffffffffffffff021916908373ffffffffffffffffffffffffffffffffffffffff16021790555060c0820151816006015560e082015181600701555050610928336008546119c2565b61093460085486611bdf565b6008600081548092919061094790613464565b91905055505050505050505050565b61097183838360405180602001604052806000815250610e56565b505050565b600080600090505b600980549050811015610a20578273ffffffffffffffffffffffffffffffffffffffff16600982815481106109b6576109b56134ac565b5b906000526020600020906008020160050160009054906101000a900473ffffffffffffffffffffffffffffffffffffffff1673ffffffffffffffffffffffffffffffffffffffff1603610a0d576001915050610a26565b8080610a1890613464565b91505061097e565b50600090505b919050565b600080610a3783611c83565b9050600073ffffffffffffffffffffffffffffffffffffffff168173ffffffffffffffffffffffffffffffffffffffff1603610aa8576040517f08c379a0000000000000000000000000000000000000000000000000000000008152600401610a9f90613527565b60405180910390fd5b80915050919050565b60008073ffffffffffffffffffffffffffffffffffffffff168273ffffffffffffffffffffffffffffffffffffffff1603610b21576040517f08c379a0000000000000000000000000000000000000000000000000000000008152600401610b18906135b9565b60405180910390fd5b600360008373ffffffffffffffffffffffffffffffffffffffff1673ffffffffffffffffffffffffffffffffffffffff168152602001908152602001600020549050919050565b606060018054610b7790612e24565b80601f0160208091040260200160405190810160405280929190818152602001828054610ba390612e24565b8015610bf05780601f10610bc557610100808354040283529160200191610bf0565b820191906000526020600020905b815481529060010190602001808311610bd357829003601f168201915b5050505050905090565b600080600090505b600854811015610cb9578360098281548110610c2157610c206134ac565b5b90600052602060002090600802016000015403610ca6578260098281548110610c4d57610c4c6134ac565b5b906000526020600020906008020160050160006101000a81548173ffffffffffffffffffffffffffffffffffffffff021916908373ffffffffffffffffffffffffffffffffffffffff1602179055506001915050610cbf565b8080610cb190613464565b915050610c02565b50600090505b92915050565b610cd7610cd0611573565b8383611cc0565b5050565b6000600760009054906101000a900473ffffffffffffffffffffffffffffffffffffffff1673ffffffffffffffffffffffffffffffffffffffff1663603acf10600760009054906101000a900473ffffffffffffffffffffffffffffffffffffffff1673ffffffffffffffffffffffffffffffffffffffff1663b8acdb016040518163ffffffff1660e01b8152600401602060405180830381865afa158015610d88573d6000803e3d6000fd5b505050506040513d601f19601f82011682018060405250810190610dac91906135d9565b6040518263ffffffff1660e01b8152600401610dc891906129c0565b602060405180830381865afa158015610de5573d6000803e3d6000fd5b505050506040513d601f19601f82011682018060405250810190610e099190613606565b90508073ffffffffffffffffffffffffffffffffffffffff166108fc839081150290604051600060405180830381858888f19350505050158015610e51573d6000803e3d6000fd5b505050565b610e67610e61611573565b83611634565b610ea6576040517f08c379a0000000000000000000000000000000000000000000000000000000008152600401610e9d90613197565b60405180910390fd5b610eb284848484611e2c565b50505050565b6060610ec382611528565b6000600660008481526020019081526020016000208054610ee390612e24565b80601f0160208091040260200160405190810160405280929190818152602001828054610f0f90612e24565b8015610f5c5780601f10610f3157610100808354040283529160200191610f5c565b820191906000526020600020905b815481529060010190602001808311610f3f57829003601f168201915b505050505090506000610f6d611e88565b90506000815103610f82578192505050610fc5565b600082511115610fb7578082604051602001610f9f92919061366f565b60405160208183030381529060405292505050610fc5565b610fc084611e9f565b925050505b919050565b6000600560008473ffffffffffffffffffffffffffffffffffffffff1673ffffffffffffffffffffffffffffffffffffffff16815260200190815260200160002060008373ffffffffffffffffffffffffffffffffffffffff1673ffffffffffffffffffffffffffffffffffffffff16815260200190815260200160002060009054906101000a900460ff16905092915050565b6000600760009054906101000a900473ffffffffffffffffffffffffffffffffffffffff1673ffffffffffffffffffffffffffffffffffffffff1663b8acdb016040518163ffffffff1660e01b8152600401602060405180830381865afa1580156110cd573d6000803e3d6000fd5b505050506040513d601f19601f820116820180604052508101906110f191906135d9565b905090565b6060600060098054905067ffffffffffffffff81111561111957611118612787565b5b60405190808252806020026020018201604052801561115257816020015b61113f612389565b8152602001906001900390816111375790505b5090506000805b60098054905081101561143b57846009828154811061117b5761117a6134ac565b5b90600052602060002090600802016001015403611428576000600982815481106111a8576111a76134ac565b5b90600052602060002090600802019050806040518061010001604052908160008201548152602001600182015481526020016002820180546111e990612e24565b80601f016020809104026020016040519081016040528092919081815260200182805461121590612e24565b80156112625780601f1061123757610100808354040283529160200191611262565b820191906000526020600020905b81548152906001019060200180831161124557829003601f168201915b5050505050815260200160038201805461127b90612e24565b80601f01602080910402602001604051908101604052809291908181526020018280546112a790612e24565b80156112f45780601f106112c9576101008083540402835291602001916112f4565b820191906000526020600020905b8154815290600101906020018083116112d757829003601f168201915b5050505050815260200160048201805461130d90612e24565b80601f016020809104026020016040519081016040528092919081815260200182805461133990612e24565b80156113865780601f1061135b57610100808354040283529160200191611386565b820191906000526020600020905b81548152906001019060200180831161136957829003601f168201915b505050505081526020016005820160009054906101000a900473ffffffffffffffffffffffffffffffffffffffff1673ffffffffffffffffffffffffffffffffffffffff1673ffffffffffffffffffffffffffffffffffffffff1681526020016006820154815260200160078201548152505084848151811061140c5761140b6134ac565b5b60200260200101819052506001836114249190613693565b9250505b808061143390613464565b915050611159565b508192505050919050565b60007f80ac58cd000000000000000000000000000000000000000000000000000000007bffffffffffffffffffffffffffffffffffffffffffffffffffffffff1916827bffffffffffffffffffffffffffffffffffffffffffffffffffffffff1916148061151157507f5b5e139f000000000000000000000000000000000000000000000000000000007bffffffffffffffffffffffffffffffffffffffffffffffffffffffff1916827bffffffffffffffffffffffffffffffffffffffffffffffffffffffff1916145b80611521575061152082611f07565b5b9050919050565b61153181611f71565b611570576040517f08c379a000000000000000000000000000000000000000000000000000000000815260040161156790613527565b60405180910390fd5b50565b600033905090565b816004600083815260200190815260200160002060006101000a81548173ffffffffffffffffffffffffffffffffffffffff021916908373ffffffffffffffffffffffffffffffffffffffff160217905550808273ffffffffffffffffffffffffffffffffffffffff166115ee83610a2b565b73ffffffffffffffffffffffffffffffffffffffff167f8c5be1e5ebec7d5bd14f71427d1e84f3dd0314c0f7b2291e5b200ac8c7c3b92560405160405180910390a45050565b60008061164083610a2b565b90508073ffffffffffffffffffffffffffffffffffffffff168473ffffffffffffffffffffffffffffffffffffffff16148061168257506116818185610fca565b5b806116c057508373ffffffffffffffffffffffffffffffffffffffff166116a884610528565b73ffffffffffffffffffffffffffffffffffffffff16145b91505092915050565b8273ffffffffffffffffffffffffffffffffffffffff166116e982610a2b565b73ffffffffffffffffffffffffffffffffffffffff161461173f576040517f08c379a000000000000000000000000000000000000000000000000000000000815260040161173690613739565b60405180910390fd5b600073ffffffffffffffffffffffffffffffffffffffff168273ffffffffffffffffffffffffffffffffffffffff16036117ae576040517f08c379a00000000000000000000000000000000000000000000000000000000081526004016117a5906137cb565b60405180910390fd5b6117bb8383836001611fb2565b8273ffffffffffffffffffffffffffffffffffffffff166117db82610a2b565b73ffffffffffffffffffffffffffffffffffffffff1614611831576040517f08c379a000000000000000000000000000000000000000000000000000000000815260040161182890613739565b60405180910390fd5b6004600082815260200190815260200160002060006101000a81549073ffffffffffffffffffffffffffffffffffffffff02191690556001600360008573ffffffffffffffffffffffffffffffffffffffff1673ffffffffffffffffffffffffffffffffffffffff168152602001908152602001600020600082825403925050819055506001600360008473ffffffffffffffffffffffffffffffffffffffff1673ffffffffffffffffffffffffffffffffffffffff16815260200190815260200160002060008282540192505081905550816002600083815260200190815260200160002060006101000a81548173ffffffffffffffffffffffffffffffffffffffff021916908373ffffffffffffffffffffffffffffffffffffffff160217905550808273ffffffffffffffffffffffffffffffffffffffff168473ffffffffffffffffffffffffffffffffffffffff167fddf252ad1be2c89b69c2b068fc378daa952ba7f163c4a11628f55a4df523b3ef60405160405180910390a46119bd8383836001611fb8565b505050565b600073ffffffffffffffffffffffffffffffffffffffff168273ffffffffffffffffffffffffffffffffffffffff1603611a31576040517f08c379a0000000000000000000000000000000000000000000000000000000008152600401611a2890613837565b60405180910390fd5b611a3a81611f71565b15611a7a576040517f08c379a0000000000000000000000000000000000000000000000000000000008152600401611a71906138a3565b60405180910390fd5b611a88600083836001611fb2565b611a9181611f71565b15611ad1576040517f08c379a0000000000000000000000000000000000000000000000000000000008152600401611ac8906138a3565b60405180910390fd5b6001600360008473ffffffffffffffffffffffffffffffffffffffff1673ffffffffffffffffffffffffffffffffffffffff16815260200190815260200160002060008282540192505081905550816002600083815260200190815260200160002060006101000a81548173ffffffffffffffffffffffffffffffffffffffff021916908373ffffffffffffffffffffffffffffffffffffffff160217905550808273ffffffffffffffffffffffffffffffffffffffff16600073ffffffffffffffffffffffffffffffffffffffff167fddf252ad1be2c89b69c2b068fc378daa952ba7f163c4a11628f55a4df523b3ef60405160405180910390a4611bdb600083836001611fb8565b5050565b611be882611f71565b611c27576040517f08c379a0000000000000000000000000000000000000000000000000000000008152600401611c1e90613935565b60405180910390fd5b80600660008481526020019081526020016000209081611c479190613363565b507ff8e1a15aba9398e019f0b49df1a4fde98ee17ae345cb5f6b5e2c27f5033e8ce782604051611c7791906129c0565b60405180910390a15050565b60006002600083815260200190815260200160002060009054906101000a900473ffffffffffffffffffffffffffffffffffffffff169050919050565b8173ffffffffffffffffffffffffffffffffffffffff168373ffffffffffffffffffffffffffffffffffffffff1603611d2e576040517f08c379a0000000000000000000000000000000000000000000000000000000008152600401611d25906139a1565b60405180910390fd5b80600560008573ffffffffffffffffffffffffffffffffffffffff1673ffffffffffffffffffffffffffffffffffffffff16815260200190815260200160002060008473ffffffffffffffffffffffffffffffffffffffff1673ffffffffffffffffffffffffffffffffffffffff16815260200190815260200160002060006101000a81548160ff0219169083151502179055508173ffffffffffffffffffffffffffffffffffffffff168373ffffffffffffffffffffffffffffffffffffffff167f17307eab39ab6107e8899845ad3d59bd9653f200f220920489ca2b5937696c3183604051611e1f9190612498565b60405180910390a3505050565b611e378484846116c9565b611e4384848484611fbe565b611e82576040517f08c379a0000000000000000000000000000000000000000000000000000000008152600401611e7990613a33565b60405180910390fd5b50505050565b606060405180602001604052806000815250905090565b6060611eaa82611528565b6000611eb4611e88565b90506000815111611ed45760405180602001604052806000815250611eff565b80611ede84612145565b604051602001611eef92919061366f565b6040516020818303038152906040525b915050919050565b60007f01ffc9a7000000000000000000000000000000000000000000000000000000007bffffffffffffffffffffffffffffffffffffffffffffffffffffffff1916827bffffffffffffffffffffffffffffffffffffffffffffffffffffffff1916149050919050565b60008073ffffffffffffffffffffffffffffffffffffffff16611f9383611c83565b73ffffffffffffffffffffffffffffffffffffffff1614159050919050565b50505050565b50505050565b6000611fdf8473ffffffffffffffffffffffffffffffffffffffff16612213565b15612138578373ffffffffffffffffffffffffffffffffffffffff1663150b7a02612008611573565b8786866040518563ffffffff1660e01b815260040161202a9493929190613aa8565b6020604051808303816000875af192505050801561206657506040513d601f19601f820116820180604052508101906120639190613b09565b60015b6120e8573d8060008114612096576040519150601f19603f3d011682016040523d82523d6000602084013e61209b565b606091505b5060008151036120e0576040517f08c379a00000000000000000000000000000000000000000000000000000000081526004016120d790613a33565b60405180910390fd5b805181602001fd5b63150b7a0260e01b7bffffffffffffffffffffffffffffffffffffffffffffffffffffffff1916817bffffffffffffffffffffffffffffffffffffffffffffffffffffffff19161491505061213d565b600190505b949350505050565b60606000600161215484612236565b01905060008167ffffffffffffffff81111561217357612172612787565b5b6040519080825280601f01601f1916602001820160405280156121a55781602001600182028036833780820191505090505b509050600082602001820190505b600115612208578080600190039150507f3031323334353637383961626364656600000000000000000000000000000000600a86061a8153600a85816121fc576121fb613b36565b5b049450600085036121b3575b819350505050919050565b6000808273ffffffffffffffffffffffffffffffffffffffff163b119050919050565b600080600090507a184f03e93ff9f4daa797ed6e38ed64bf6a1f0100000000000000008310612294577a184f03e93ff9f4daa797ed6e38ed64bf6a1f010000000000000000838161228a57612289613b36565b5b0492506040810190505b6d04ee2d6d415b85acef810000000083106122d1576d04ee2d6d415b85acef810000000083816122c7576122c6613b36565b5b0492506020810190505b662386f26fc10000831061230057662386f26fc1000083816122f6576122f5613b36565b5b0492506010810190505b6305f5e1008310612329576305f5e100838161231f5761231e613b36565b5b0492506008810190505b612710831061234e57612710838161234457612343613b36565b5b0492506004810190505b60648310612371576064838161236757612366613b36565b5b0492506002810190505b600a8310612380576001810190505b80915050919050565b6040518061010001604052806000815260200160008152602001606081526020016060815260200160608152602001600073ffffffffffffffffffffffffffffffffffffffff16815260200160008152602001600081525090565b6000604051905090565b600080fd5b600080fd5b60007fffffffff0000000000000000000000000000000000000000000000000000000082169050919050565b61242d816123f8565b811461243857600080fd5b50565b60008135905061244a81612424565b92915050565b600060208284031215612466576124656123ee565b5b60006124748482850161243b565b91505092915050565b60008115159050919050565b6124928161247d565b82525050565b60006020820190506124ad6000830184612489565b92915050565b600081519050919050565b600082825260208201905092915050565b60005b838110156124ed5780820151818401526020810190506124d2565b60008484015250505050565b6000601f19601f8301169050919050565b6000612515826124b3565b61251f81856124be565b935061252f8185602086016124cf565b612538816124f9565b840191505092915050565b6000602082019050818103600083015261255d818461250a565b905092915050565b6000819050919050565b61257881612565565b811461258357600080fd5b50565b6000813590506125958161256f565b92915050565b6000602082840312156125b1576125b06123ee565b5b60006125bf84828501612586565b91505092915050565b600073ffffffffffffffffffffffffffffffffffffffff82169050919050565b60006125f3826125c8565b9050919050565b612603816125e8565b82525050565b600060208201905061261e60008301846125fa565b92915050565b61262d816125e8565b811461263857600080fd5b50565b60008135905061264a81612624565b92915050565b60008060408385031215612667576126666123ee565b5b60006126758582860161263b565b925050602061268685828601612586565b9150509250929050565b61269981612565565b82525050565b600060e0820190506126b4600083018a612690565b81810360208301526126c6818961250a565b905081810360408301526126da818861250a565b905081810360608301526126ee818761250a565b90508181036080830152612702818661250a565b905061271160a08301856125fa565b61271e60c0830184612690565b98975050505050505050565b600080600060608486031215612743576127426123ee565b5b60006127518682870161263b565b93505060206127628682870161263b565b925050604061277386828701612586565b9150509250925092565b600080fd5b600080fd5b7f4e487b7100000000000000000000000000000000000000000000000000000000600052604160045260246000fd5b6127bf826124f9565b810181811067ffffffffffffffff821117156127de576127dd612787565b5b80604052505050565b60006127f16123e4565b90506127fd82826127b6565b919050565b600067ffffffffffffffff82111561281d5761281c612787565b5b612826826124f9565b9050602081019050919050565b82818337600083830152505050565b600061285561285084612802565b6127e7565b90508281526020810184848401111561287157612870612782565b5b61287c848285612833565b509392505050565b600082601f8301126128995761289861277d565b5b81356128a9848260208601612842565b91505092915050565b60008060008060008060c087890312156128cf576128ce6123ee565b5b60006128dd89828a01612586565b965050602087013567ffffffffffffffff8111156128fe576128fd6123f3565b5b61290a89828a01612884565b955050604087013567ffffffffffffffff81111561292b5761292a6123f3565b5b61293789828a01612884565b945050606087013567ffffffffffffffff811115612958576129576123f3565b5b61296489828a01612884565b935050608061297589828a0161263b565b92505060a061298689828a01612586565b9150509295509295509295565b6000602082840312156129a9576129a86123ee565b5b60006129b78482850161263b565b91505092915050565b60006020820190506129d56000830184612690565b92915050565b600080604083850312156129f2576129f16123ee565b5b6000612a0085828601612586565b9250506020612a118582860161263b565b9150509250929050565b612a248161247d565b8114612a2f57600080fd5b50565b600081359050612a4181612a1b565b92915050565b60008060408385031215612a5e57612a5d6123ee565b5b6000612a6c8582860161263b565b9250506020612a7d85828601612a32565b9150509250929050565b600067ffffffffffffffff821115612aa257612aa1612787565b5b612aab826124f9565b9050602081019050919050565b6000612acb612ac684612a87565b6127e7565b905082815260208101848484011115612ae757612ae6612782565b5b612af2848285612833565b509392505050565b600082601f830112612b0f57612b0e61277d565b5b8135612b1f848260208601612ab8565b91505092915050565b60008060008060808587031215612b4257612b416123ee565b5b6000612b508782880161263b565b9450506020612b618782880161263b565b9350506040612b7287828801612586565b925050606085013567ffffffffffffffff811115612b9357612b926123f3565b5b612b9f87828801612afa565b91505092959194509250565b60008060408385031215612bc257612bc16123ee565b5b6000612bd08582860161263b565b9250506020612be18582860161263b565b9150509250929050565b600081519050919050565b600082825260208201905092915050565b6000819050602082019050919050565b612c2081612565565b82525050565b600082825260208201905092915050565b6000612c42826124b3565b612c4c8185612c26565b9350612c5c8185602086016124cf565b612c65816124f9565b840191505092915050565b612c79816125e8565b82525050565b600061010083016000830151612c986000860182612c17565b506020830151612cab6020860182612c17565b5060408301518482036040860152612cc38282612c37565b91505060608301518482036060860152612cdd8282612c37565b91505060808301518482036080860152612cf78282612c37565b91505060a0830151612d0c60a0860182612c70565b5060c0830151612d1f60c0860182612c17565b5060e0830151612d3260e0860182612c17565b508091505092915050565b6000612d498383612c7f565b905092915050565b6000602082019050919050565b6000612d6982612beb565b612d738185612bf6565b935083602082028501612d8585612c07565b8060005b85811015612dc15784840389528151612da28582612d3d565b9450612dad83612d51565b925060208a01995050600181019050612d89565b50829750879550505050505092915050565b60006020820190508181036000830152612ded8184612d5e565b905092915050565b7f4e487b7100000000000000000000000000000000000000000000000000000000600052602260045260246000fd5b60006002820490506001821680612e3c57607f821691505b602082108103612e4f57612e4e612df5565b5b50919050565b7f4552433732313a20617070726f76616c20746f2063757272656e74206f776e6560008201527f7200000000000000000000000000000000000000000000000000000000000000602082015250565b6000612eb16021836124be565b9150612ebc82612e55565b604082019050919050565b60006020820190508181036000830152612ee081612ea4565b9050919050565b7f4552433732313a20617070726f76652063616c6c6572206973206e6f7420746f60008201527f6b656e206f776e6572206f7220617070726f76656420666f7220616c6c000000602082015250565b6000612f43603d836124be565b9150612f4e82612ee7565b604082019050919050565b60006020820190508181036000830152612f7281612f36565b9050919050565b600081519050612f888161256f565b92915050565b6000612fa1612f9c84612802565b6127e7565b905082815260208101848484011115612fbd57612fbc612782565b5b612fc88482856124cf565b509392505050565b600082601f830112612fe557612fe461277d565b5b8151612ff5848260208601612f8e565b91505092915050565b60008151905061300d81612624565b92915050565b600080600080600080600060e0888a031215613032576130316123ee565b5b60006130408a828b01612f79565b975050602088015167ffffffffffffffff811115613061576130606123f3565b5b61306d8a828b01612fd0565b965050604088015167ffffffffffffffff81111561308e5761308d6123f3565b5b61309a8a828b01612fd0565b955050606088015167ffffffffffffffff8111156130bb576130ba6123f3565b5b6130c78a828b01612fd0565b945050608088015167ffffffffffffffff8111156130e8576130e76123f3565b5b6130f48a828b01612fd0565b93505060a06131058a828b01612ffe565b92505060c06131168a828b01612f79565b91505092959891949750929550565b7f4552433732313a2063616c6c6572206973206e6f7420746f6b656e206f776e6560008201527f72206f7220617070726f76656400000000000000000000000000000000000000602082015250565b6000613181602d836124be565b915061318c82613125565b604082019050919050565b600060208201905081810360008301526131b081613174565b9050919050565b60008190508160005260206000209050919050565b60006020601f8301049050919050565b600082821b905092915050565b6000600883026132197fffffffffffffffffffffffffffffffffffffffffffffffffffffffffffffffff826131dc565b61322386836131dc565b95508019841693508086168417925050509392505050565b6000819050919050565b600061326061325b61325684612565565b61323b565b612565565b9050919050565b6000819050919050565b61327a83613245565b61328e61328682613267565b8484546131e9565b825550505050565b600090565b6132a3613296565b6132ae818484613271565b505050565b5b818110156132d2576132c760008261329b565b6001810190506132b4565b5050565b601f821115613317576132e8816131b7565b6132f1846131cc565b81016020851015613300578190505b61331461330c856131cc565b8301826132b3565b50505b505050565b600082821c905092915050565b600061333a6000198460080261331c565b1980831691505092915050565b60006133538383613329565b9150826002028217905092915050565b61336c826124b3565b67ffffffffffffffff81111561338557613384612787565b5b61338f8254612e24565b61339a8282856132d6565b600060209050601f8311600181146133cd57600084156133bb578287015190505b6133c58582613347565b86555061342d565b601f1984166133db866131b7565b60005b82811015613403578489015182556001820191506020850194506020810190506133de565b86831015613420578489015161341c601f891682613329565b8355505b6001600288020188555050505b505050505050565b7f4e487b7100000000000000000000000000000000000000000000000000000000600052601160045260246000fd5b600061346f82612565565b91507fffffffffffffffffffffffffffffffffffffffffffffffffffffffffffffffff82036134a1576134a0613435565b5b600182019050919050565b7f4e487b7100000000000000000000000000000000000000000000000000000000600052603260045260246000fd5b7f4552433732313a20696e76616c696420746f6b656e2049440000000000000000600082015250565b60006135116018836124be565b915061351c826134db565b602082019050919050565b6000602082019050818103600083015261354081613504565b9050919050565b7f4552433732313a2061646472657373207a65726f206973206e6f74206120766160008201527f6c6964206f776e65720000000000000000000000000000000000000000000000602082015250565b60006135a36029836124be565b91506135ae82613547565b604082019050919050565b600060208201905081810360008301526135d281613596565b9050919050565b6000602082840312156135ef576135ee6123ee565b5b60006135fd84828501612f79565b91505092915050565b60006020828403121561361c5761361b6123ee565b5b600061362a84828501612ffe565b91505092915050565b600081905092915050565b6000613649826124b3565b6136538185613633565b93506136638185602086016124cf565b80840191505092915050565b600061367b828561363e565b9150613687828461363e565b91508190509392505050565b600061369e82612565565b91506136a983612565565b92508282019050808211156136c1576136c0613435565b5b92915050565b7f4552433732313a207472616e736665722066726f6d20696e636f72726563742060008201527f6f776e6572000000000000000000000000000000000000000000000000000000602082015250565b60006137236025836124be565b915061372e826136c7565b604082019050919050565b6000602082019050818103600083015261375281613716565b9050919050565b7f4552433732313a207472616e7366657220746f20746865207a65726f2061646460008201527f7265737300000000000000000000000000000000000000000000000000000000602082015250565b60006137b56024836124be565b91506137c082613759565b604082019050919050565b600060208201905081810360008301526137e4816137a8565b9050919050565b7f4552433732313a206d696e7420746f20746865207a65726f2061646472657373600082015250565b60006138216020836124be565b915061382c826137eb565b602082019050919050565b6000602082019050818103600083015261385081613814565b9050919050565b7f4552433732313a20746f6b656e20616c7265616479206d696e74656400000000600082015250565b600061388d601c836124be565b915061389882613857565b602082019050919050565b600060208201905081810360008301526138bc81613880565b9050919050565b7f45524337323155524953746f726167653a2055524920736574206f66206e6f6e60008201527f6578697374656e7420746f6b656e000000000000000000000000000000000000602082015250565b600061391f602e836124be565b915061392a826138c3565b604082019050919050565b6000602082019050818103600083015261394e81613912565b9050919050565b7f4552433732313a20617070726f766520746f2063616c6c657200000000000000600082015250565b600061398b6019836124be565b915061399682613955565b602082019050919050565b600060208201905081810360008301526139ba8161397e565b9050919050565b7f4552433732313a207472616e7366657220746f206e6f6e20455243373231526560008201527f63656976657220696d706c656d656e7465720000000000000000000000000000602082015250565b6000613a1d6032836124be565b9150613a28826139c1565b604082019050919050565b60006020820190508181036000830152613a4c81613a10565b9050919050565b600081519050919050565b600082825260208201905092915050565b6000613a7a82613a53565b613a848185613a5e565b9350613a948185602086016124cf565b613a9d816124f9565b840191505092915050565b6000608082019050613abd60008301876125fa565b613aca60208301866125fa565b613ad76040830185612690565b8181036060830152613ae98184613a6f565b905095945050505050565b600081519050613b0381612424565b92915050565b600060208284031215613b1f57613b1e6123ee565b5b6000613b2d84828501613af4565b91505092915050565b7f4e487b7100000000000000000000000000000000000000000000000000000000600052601260045260246000fdfea2646970667358221220acf7c753d8e66295ed3f1e30412a9163f473fcf1fddc18fe686dd93cf12fae1264736f6c63430008120033",
  "linkReferences": {},
  "deployedLinkReferences": {}
}