{
  "_format": "hh-sol-artifact-1",
  "contractName": "GymStore",
  "sourceName": "contracts/GymStore.sol",
  "abi": [
    {
      "inputs": [],
      "stateMutability": "nonpayable",
      "type": "constructor"
    },
    {
      "anonymous": false,
      "inputs": [
        {
          "indexed": true,
          "internalType": "address",
          "name": "owner",
          "type": "address"
        },
        {
          "indexed": true,
          "internalType": "address",
          "name": "approved",
          "type": "address"
        },
        {
          "indexed": true,
          "internalType": "uint256",
          "name": "tokenId",
          "type": "uint256"
        }
      ],
      "name": "Approval",
      "type": "event"
    },
    {
      "anonymous": false,
      "inputs": [
        {
          "indexed": true,
          "internalType": "address",
          "name": "owner",
          "type": "address"
        },
        {
          "indexed": true,
          "internalType": "address",
          "name": "operator",
          "type": "address"
        },
        {
          "indexed": false,
          "internalType": "bool",
          "name": "approved",
          "type": "bool"
        }
      ],
      "name": "ApprovalForAll",
      "type": "event"
    },
    {
      "anonymous": false,
      "inputs": [
        {
          "indexed": false,
          "internalType": "uint256",
          "name": "_fromTokenId",
          "type": "uint256"
        },
        {
          "indexed": false,
          "internalType": "uint256",
          "name": "_toTokenId",
          "type": "uint256"
        }
      ],
      "name": "BatchMetadataUpdate",
      "type": "event"
    },
    {
      "anonymous": false,
      "inputs": [
        {
          "indexed": false,
          "internalType": "uint256",
          "name": "_tokenId",
          "type": "uint256"
        }
      ],
      "name": "MetadataUpdate",
      "type": "event"
    },
    {
      "anonymous": false,
      "inputs": [
        {
          "indexed": true,
          "internalType": "address",
          "name": "from",
          "type": "address"
        },
        {
          "indexed": true,
          "internalType": "address",
          "name": "to",
          "type": "address"
        },
        {
          "indexed": true,
          "internalType": "uint256",
          "name": "tokenId",
          "type": "uint256"
        }
      ],
      "name": "Transfer",
      "type": "event"
    },
    {
      "inputs": [
        {
          "internalType": "address",
          "name": "to",
          "type": "address"
        },
        {
          "internalType": "uint256",
          "name": "tokenId",
          "type": "uint256"
        }
      ],
      "name": "approve",
      "outputs": [],
      "stateMutability": "nonpayable",
      "type": "function"
    },
    {
      "inputs": [
        {
          "internalType": "address",
          "name": "owner",
          "type": "address"
        }
      ],
      "name": "balanceOf",
      "outputs": [
        {
          "internalType": "uint256",
          "name": "",
          "type": "uint256"
        }
      ],
      "stateMutability": "view",
      "type": "function"
    },
    {
      "inputs": [
        {
          "internalType": "string",
          "name": "name",
          "type": "string"
        },
        {
          "internalType": "string",
          "name": "image",
          "type": "string"
        },
        {
          "internalType": "string",
          "name": "storeAddr",
          "type": "string"
        },
        {
          "internalType": "string",
          "name": "ipfsHash",
          "type": "string"
        }
      ],
      "name": "createStore",
      "outputs": [],
      "stateMutability": "nonpayable",
      "type": "function"
    },
    {
      "inputs": [
        {
          "internalType": "uint256",
          "name": "_storeId",
          "type": "uint256"
        }
      ],
      "name": "deleteStore",
      "outputs": [],
      "stateMutability": "nonpayable",
      "type": "function"
    },
    {
      "inputs": [
        {
          "internalType": "uint256",
          "name": "tokenId",
          "type": "uint256"
        }
      ],
      "name": "getApproved",
      "outputs": [
        {
          "internalType": "address",
          "name": "",
          "type": "address"
        }
      ],
      "stateMutability": "view",
      "type": "function"
    },
    {
      "inputs": [
        {
          "internalType": "address",
          "name": "ownerAddress",
          "type": "address"
        }
      ],
      "name": "getOwnerStore",
      "outputs": [
        {
          "internalType": "uint256",
          "name": "",
          "type": "uint256"
        },
        {
          "internalType": "string",
          "name": "",
          "type": "string"
        },
        {
          "internalType": "string",
          "name": "",
          "type": "string"
        },
        {
          "internalType": "string",
          "name": "",
          "type": "string"
        },
        {
          "internalType": "string",
          "name": "",
          "type": "string"
        },
        {
          "internalType": "address",
          "name": "",
          "type": "address"
        },
        {
          "internalType": "uint256",
          "name": "",
          "type": "uint256"
        }
      ],
      "stateMutability": "view",
      "type": "function"
    },
    {
      "inputs": [
        {
          "internalType": "uint256",
          "name": "_storeId",
          "type": "uint256"
        }
      ],
      "name": "getStore",
      "outputs": [
        {
          "internalType": "uint256",
          "name": "",
          "type": "uint256"
        },
        {
          "internalType": "string",
          "name": "",
          "type": "string"
        },
        {
          "internalType": "string",
          "name": "",
          "type": "string"
        },
        {
          "internalType": "string",
          "name": "",
          "type": "string"
        },
        {
          "internalType": "string",
          "name": "",
          "type": "string"
        },
        {
          "internalType": "address",
          "name": "",
          "type": "address"
        },
        {
          "internalType": "uint256",
          "name": "",
          "type": "uint256"
        }
      ],
      "stateMutability": "view",
      "type": "function"
    },
    {
      "inputs": [
        {
          "internalType": "address",
          "name": "_address",
          "type": "address"
        }
      ],
      "name": "getStoreId",
      "outputs": [
        {
          "internalType": "uint256",
          "name": "",
          "type": "uint256"
        }
      ],
      "stateMutability": "view",
      "type": "function"
    },
    {
      "inputs": [],
      "name": "getStoreNumber",
      "outputs": [
        {
          "internalType": "uint256",
          "name": "",
          "type": "uint256"
        }
      ],
      "stateMutability": "view",
      "type": "function"
    },
    {
      "inputs": [
        {
          "internalType": "uint256",
          "name": "storeId",
          "type": "uint256"
        }
      ],
      "name": "getStoreOwner",
      "outputs": [
        {
          "internalType": "address",
          "name": "",
          "type": "address"
        }
      ],
      "stateMutability": "view",
      "type": "function"
    },
    {
      "inputs": [
        {
          "internalType": "address",
          "name": "owner",
          "type": "address"
        },
        {
          "internalType": "address",
          "name": "operator",
          "type": "address"
        }
      ],
      "name": "isApprovedForAll",
      "outputs": [
        {
          "internalType": "bool",
          "name": "",
          "type": "bool"
        }
      ],
      "stateMutability": "view",
      "type": "function"
    },
    {
      "inputs": [],
      "name": "name",
      "outputs": [
        {
          "internalType": "string",
          "name": "",
          "type": "string"
        }
      ],
      "stateMutability": "view",
      "type": "function"
    },
    {
      "inputs": [
        {
          "internalType": "uint256",
          "name": "tokenId",
          "type": "uint256"
        }
      ],
      "name": "ownerOf",
      "outputs": [
        {
          "internalType": "address",
          "name": "",
          "type": "address"
        }
      ],
      "stateMutability": "view",
      "type": "function"
    },
    {
      "inputs": [
        {
          "internalType": "address",
          "name": "_storeOWner",
          "type": "address"
        }
      ],
      "name": "ownsAStore",
      "outputs": [
        {
          "internalType": "bool",
          "name": "",
          "type": "bool"
        }
      ],
      "stateMutability": "view",
      "type": "function"
    },
    {
      "inputs": [
        {
          "internalType": "address",
          "name": "from",
          "type": "address"
        },
        {
          "internalType": "address",
          "name": "to",
          "type": "address"
        },
        {
          "internalType": "uint256",
          "name": "tokenId",
          "type": "uint256"
        }
      ],
      "name": "safeTransferFrom",
      "outputs": [],
      "stateMutability": "nonpayable",
      "type": "function"
    },
    {
      "inputs": [
        {
          "internalType": "address",
          "name": "from",
          "type": "address"
        },
        {
          "internalType": "address",
          "name": "to",
          "type": "address"
        },
        {
          "internalType": "uint256",
          "name": "tokenId",
          "type": "uint256"
        },
        {
          "internalType": "bytes",
          "name": "data",
          "type": "bytes"
        }
      ],
      "name": "safeTransferFrom",
      "outputs": [],
      "stateMutability": "nonpayable",
      "type": "function"
    },
    {
      "inputs": [
        {
          "internalType": "address",
          "name": "operator",
          "type": "address"
        },
        {
          "internalType": "bool",
          "name": "approved",
          "type": "bool"
        }
      ],
      "name": "setApprovalForAll",
      "outputs": [],
      "stateMutability": "nonpayable",
      "type": "function"
    },
    {
      "inputs": [
        {
          "internalType": "bytes4",
          "name": "interfaceId",
          "type": "bytes4"
        }
      ],
      "name": "supportsInterface",
      "outputs": [
        {
          "internalType": "bool",
          "name": "",
          "type": "bool"
        }
      ],
      "stateMutability": "view",
      "type": "function"
    },
    {
      "inputs": [],
      "name": "symbol",
      "outputs": [
        {
          "internalType": "string",
          "name": "",
          "type": "string"
        }
      ],
      "stateMutability": "view",
      "type": "function"
    },
    {
      "inputs": [
        {
          "internalType": "uint256",
          "name": "tokenId",
          "type": "uint256"
        }
      ],
      "name": "tokenURI",
      "outputs": [
        {
          "internalType": "string",
          "name": "",
          "type": "string"
        }
      ],
      "stateMutability": "view",
      "type": "function"
    },
    {
      "inputs": [
        {
          "internalType": "address",
          "name": "from",
          "type": "address"
        },
        {
          "internalType": "address",
          "name": "to",
          "type": "address"
        },
        {
          "internalType": "uint256",
          "name": "tokenId",
          "type": "uint256"
        }
      ],
      "name": "transferFrom",
      "outputs": [],
      "stateMutability": "nonpayable",
      "type": "function"
    }
  ],
  "bytecode": "0x608060405260016007553480156200001657600080fd5b506040518060400160405280600b81526020017f47796d53746f72654e46540000000000000000000000000000000000000000008152506040518060400160405280600381526020017f4753540000000000000000000000000000000000000000000000000000000000815250816000908162000094919062000329565b508060019081620000a6919062000329565b50505062000410565b600081519050919050565b7f4e487b7100000000000000000000000000000000000000000000000000000000600052604160045260246000fd5b7f4e487b7100000000000000000000000000000000000000000000000000000000600052602260045260246000fd5b600060028204905060018216806200013157607f821691505b602082108103620001475762000146620000e9565b5b50919050565b60008190508160005260206000209050919050565b60006020601f8301049050919050565b600082821b905092915050565b600060088302620001b17fffffffffffffffffffffffffffffffffffffffffffffffffffffffffffffffff8262000172565b620001bd868362000172565b95508019841693508086168417925050509392505050565b6000819050919050565b6000819050919050565b60006200020a62000204620001fe84620001d5565b620001df565b620001d5565b9050919050565b6000819050919050565b6200022683620001e9565b6200023e620002358262000211565b8484546200017f565b825550505050565b600090565b6200025562000246565b620002628184846200021b565b505050565b5b818110156200028a576200027e6000826200024b565b60018101905062000268565b5050565b601f821115620002d957620002a3816200014d565b620002ae8462000162565b81016020851015620002be578190505b620002d6620002cd8562000162565b83018262000267565b50505b505050565b600082821c905092915050565b6000620002fe60001984600802620002de565b1980831691505092915050565b6000620003198383620002eb565b9150826002028217905092915050565b6200033482620000af565b67ffffffffffffffff81111562000350576200034f620000ba565b5b6200035c825462000118565b620003698282856200028e565b600060209050601f831160018114620003a157600084156200038c578287015190505b6200039885826200030b565b86555062000408565b601f198416620003b1866200014d565b60005b82811015620003db57848901518255600182019150602085019450602081019050620003b4565b86831015620003fb5784890151620003f7601f891682620002eb565b8355505b6001600288020188555050505b505050505050565b6138fa80620004206000396000f3fe608060405234801561001057600080fd5b50600436106101375760003560e01c80636352211e116100b857806395d89b411161007c57806395d89b41146103a2578063a22cb465146103c0578063b88d4fde146103dc578063b8acdb01146103f8578063c87b56dd14610416578063e985e9c51461044657610137565b80636352211e146102c05780636baf8408146102f057806370a08231146103205780637cc6932514610350578063834031201461036c57610137565b806342842e0e116100ff57806342842e0e146101f2578063451bf3531461020e578063508b019e146102445780635c96e75114610260578063603acf101461029057610137565b806301ffc9a71461013c57806306fdde031461016c578063081812fc1461018a578063095ea7b3146101ba57806323b872dd146101d6575b600080fd5b61015660048036038101906101519190612609565b610476565b6040516101639190612651565b60405180910390f35b6101746104d7565b60405161018191906126fc565b60405180910390f35b6101a4600480360381019061019f9190612754565b610569565b6040516101b191906127c2565b60405180910390f35b6101d460048036038101906101cf9190612809565b6105af565b005b6101f060048036038101906101eb9190612849565b6106c6565b005b61020c60048036038101906102079190612849565b610726565b005b6102286004803603810190610223919061289c565b610746565b60405161023b97969594939291906128d8565b60405180910390f35b61025e60048036038101906102599190612a98565b610b17565b005b61027a6004803603810190610275919061289c565b610dfb565b6040516102879190612b6f565b60405180910390f35b6102aa60048036038101906102a59190612754565b610e44565b6040516102b791906127c2565b60405180910390f35b6102da60048036038101906102d59190612754565b610e81565b6040516102e791906127c2565b60405180910390f35b61030a6004803603810190610305919061289c565b610f07565b6040516103179190612651565b60405180910390f35b61033a6004803603810190610335919061289c565b610f5d565b6040516103479190612b6f565b60405180910390f35b61036a60048036038101906103659190612754565b611014565b005b61038660048036038101906103819190612754565b6110b8565b60405161039997969594939291906128d8565b60405180910390f35b6103aa611444565b6040516103b791906126fc565b60405180910390f35b6103da60048036038101906103d59190612bb6565b6114d6565b005b6103f660048036038101906103f19190612c97565b6114ec565b005b61040061154e565b60405161040d9190612b6f565b60405180910390f35b610430600480360381019061042b9190612754565b611558565b60405161043d91906126fc565b60405180910390f35b610460600480360381019061045b9190612d1a565b61166a565b60405161046d9190612651565b60405180910390f35b6000634906490660e01b7bffffffffffffffffffffffffffffffffffffffffffffffffffffffff1916827bffffffffffffffffffffffffffffffffffffffffffffffffffffffff191614806104d057506104cf826116fe565b5b9050919050565b6060600080546104e690612d89565b80601f016020809104026020016040519081016040528092919081815260200182805461051290612d89565b801561055f5780601f106105345761010080835404028352916020019161055f565b820191906000526020600020905b81548152906001019060200180831161054257829003601f168201915b5050505050905090565b6000610574826117e0565b6004600083815260200190815260200160002060009054906101000a900473ffffffffffffffffffffffffffffffffffffffff169050919050565b60006105ba82610e81565b90508073ffffffffffffffffffffffffffffffffffffffff168373ffffffffffffffffffffffffffffffffffffffff160361062a576040517f08c379a000000000000000000000000000000000000000000000000000000000815260040161062190612e2c565b60405180910390fd5b8073ffffffffffffffffffffffffffffffffffffffff1661064961182b565b73ffffffffffffffffffffffffffffffffffffffff16148061067857506106778161067261182b565b61166a565b5b6106b7576040517f08c379a00000000000000000000000000000000000000000000000000000000081526004016106ae90612ebe565b60405180910390fd5b6106c18383611833565b505050565b6106d76106d161182b565b826118ec565b610716576040517f08c379a000000000000000000000000000000000000000000000000000000000815260040161070d90612f50565b60405180910390fd5b610721838383611981565b505050565b610741838383604051806020016040528060008152506114ec565b505050565b60006060806060806000806000600b60008a73ffffffffffffffffffffffffffffffffffffffff1673ffffffffffffffffffffffffffffffffffffffff16815260200190815260200160002054905060006001826107a49190612f9f565b9050600881815481106107ba576107b9612fd3565b5b906000526020600020906007020160000154600882815481106107e0576107df612fd3565b5b90600052602060002090600702016001016008838154811061080557610804612fd3565b5b90600052602060002090600702016002016008848154811061082a57610829612fd3565b5b90600052602060002090600702016003016008858154811061084f5761084e612fd3565b5b90600052602060002090600702016004016008868154811061087457610873612fd3565b5b906000526020600020906007020160050160009054906101000a900473ffffffffffffffffffffffffffffffffffffffff16600887815481106108ba576108b9612fd3565b5b9060005260206000209060070201600601548580546108d890612d89565b80601f016020809104026020016040519081016040528092919081815260200182805461090490612d89565b80156109515780601f1061092657610100808354040283529160200191610951565b820191906000526020600020905b81548152906001019060200180831161093457829003601f168201915b5050505050955084805461096490612d89565b80601f016020809104026020016040519081016040528092919081815260200182805461099090612d89565b80156109dd5780601f106109b2576101008083540402835291602001916109dd565b820191906000526020600020905b8154815290600101906020018083116109c057829003601f168201915b505050505094508380546109f090612d89565b80601f0160208091040260200160405190810160405280929190818152602001828054610a1c90612d89565b8015610a695780601f10610a3e57610100808354040283529160200191610a69565b820191906000526020600020905b815481529060010190602001808311610a4c57829003601f168201915b50505050509350828054610a7c90612d89565b80601f0160208091040260200160405190810160405280929190818152602001828054610aa890612d89565b8015610af55780601f10610aca57610100808354040283529160200191610af5565b820191906000526020600020905b815481529060010190602001808311610ad857829003601f168201915b5050505050925098509850985098509850985098505050919395979092949650565b60001515600c60003373ffffffffffffffffffffffffffffffffffffffff1673ffffffffffffffffffffffffffffffffffffffff16815260200190815260200160002060009054906101000a900460ff16151514610baa576040517f08c379a0000000000000000000000000000000000000000000000000000000008152600401610ba190613074565b60405180910390fd5b6000600754905060006040518060e001604052808381526020018781526020018681526020018581526020018481526020013373ffffffffffffffffffffffffffffffffffffffff1681526020014281525090506008819080600181540180825580915050600190039060005260206000209060070201600090919091909150600082015181600001556020820151816001019081610c499190613240565b506040820151816002019081610c5f9190613240565b506060820151816003019081610c759190613240565b506080820151816004019081610c8b9190613240565b5060a08201518160050160006101000a81548173ffffffffffffffffffffffffffffffffffffffff021916908373ffffffffffffffffffffffffffffffffffffffff16021790555060c082015181600601555050610ceb33600754611c7a565b6001600c60003373ffffffffffffffffffffffffffffffffffffffff1673ffffffffffffffffffffffffffffffffffffffff16815260200190815260200160002060006101000a81548160ff021916908315150217905550600754600b60003373ffffffffffffffffffffffffffffffffffffffff1673ffffffffffffffffffffffffffffffffffffffff1681526020019081526020016000208190555033600a600084815260200190815260200160002060006101000a81548173ffffffffffffffffffffffffffffffffffffffff021916908373ffffffffffffffffffffffffffffffffffffffff16021790555060076000815480929190610dee90613312565b9190505550505050505050565b6000600b60008373ffffffffffffffffffffffffffffffffffffffff1673ffffffffffffffffffffffffffffffffffffffff168152602001908152602001600020549050919050565b6000600a600083815260200190815260200160002060009054906101000a900473ffffffffffffffffffffffffffffffffffffffff169050919050565b600080610e8d83611e97565b9050600073ffffffffffffffffffffffffffffffffffffffff168173ffffffffffffffffffffffffffffffffffffffff1603610efe576040517f08c379a0000000000000000000000000000000000000000000000000000000008152600401610ef5906133a6565b60405180910390fd5b80915050919050565b6000600c60008373ffffffffffffffffffffffffffffffffffffffff1673ffffffffffffffffffffffffffffffffffffffff16815260200190815260200160002060009054906101000a900460ff169050919050565b60008073ffffffffffffffffffffffffffffffffffffffff168273ffffffffffffffffffffffffffffffffffffffff1603610fcd576040517f08c379a0000000000000000000000000000000000000000000000000000000008152600401610fc490613438565b60405180910390fd5b600360008373ffffffffffffffffffffffffffffffffffffffff1673ffffffffffffffffffffffffffffffffffffffff168152602001908152602001600020549050919050565b3373ffffffffffffffffffffffffffffffffffffffff16600a600083815260200190815260200160002060009054906101000a900473ffffffffffffffffffffffffffffffffffffffff1673ffffffffffffffffffffffffffffffffffffffff161461107f57600080fd5b600a600082815260200190815260200160002060006101000a81549073ffffffffffffffffffffffffffffffffffffffff021916905550565b600060608060608060008060006001896110d29190612f9f565b9050600881815481106110e8576110e7612fd3565b5b9060005260206000209060070201600001546008828154811061110e5761110d612fd3565b5b90600052602060002090600702016001016008838154811061113357611132612fd3565b5b90600052602060002090600702016002016008848154811061115857611157612fd3565b5b90600052602060002090600702016003016008858154811061117d5761117c612fd3565b5b9060005260206000209060070201600401600886815481106111a2576111a1612fd3565b5b906000526020600020906007020160050160009054906101000a900473ffffffffffffffffffffffffffffffffffffffff16600887815481106111e8576111e7612fd3565b5b90600052602060002090600702016006015485805461120690612d89565b80601f016020809104026020016040519081016040528092919081815260200182805461123290612d89565b801561127f5780601f106112545761010080835404028352916020019161127f565b820191906000526020600020905b81548152906001019060200180831161126257829003601f168201915b5050505050955084805461129290612d89565b80601f01602080910402602001604051908101604052809291908181526020018280546112be90612d89565b801561130b5780601f106112e05761010080835404028352916020019161130b565b820191906000526020600020905b8154815290600101906020018083116112ee57829003601f168201915b5050505050945083805461131e90612d89565b80601f016020809104026020016040519081016040528092919081815260200182805461134a90612d89565b80156113975780601f1061136c57610100808354040283529160200191611397565b820191906000526020600020905b81548152906001019060200180831161137a57829003601f168201915b505050505093508280546113aa90612d89565b80601f01602080910402602001604051908101604052809291908181526020018280546113d690612d89565b80156114235780601f106113f857610100808354040283529160200191611423565b820191906000526020600020905b81548152906001019060200180831161140657829003601f168201915b50505050509250975097509750975097509750975050919395979092949650565b60606001805461145390612d89565b80601f016020809104026020016040519081016040528092919081815260200182805461147f90612d89565b80156114cc5780601f106114a1576101008083540402835291602001916114cc565b820191906000526020600020905b8154815290600101906020018083116114af57829003601f168201915b5050505050905090565b6114e86114e161182b565b8383611ed4565b5050565b6114fd6114f761182b565b836118ec565b61153c576040517f08c379a000000000000000000000000000000000000000000000000000000000815260040161153390612f50565b60405180910390fd5b61154884848484612040565b50505050565b6000600754905090565b6060611563826117e0565b600060066000848152602001908152602001600020805461158390612d89565b80601f01602080910402602001604051908101604052809291908181526020018280546115af90612d89565b80156115fc5780601f106115d1576101008083540402835291602001916115fc565b820191906000526020600020905b8154815290600101906020018083116115df57829003601f168201915b50505050509050600061160d61209c565b90506000815103611622578192505050611665565b60008251111561165757808260405160200161163f929190613494565b60405160208183030381529060405292505050611665565b611660846120b3565b925050505b919050565b6000600560008473ffffffffffffffffffffffffffffffffffffffff1673ffffffffffffffffffffffffffffffffffffffff16815260200190815260200160002060008373ffffffffffffffffffffffffffffffffffffffff1673ffffffffffffffffffffffffffffffffffffffff16815260200190815260200160002060009054906101000a900460ff16905092915050565b60007f80ac58cd000000000000000000000000000000000000000000000000000000007bffffffffffffffffffffffffffffffffffffffffffffffffffffffff1916827bffffffffffffffffffffffffffffffffffffffffffffffffffffffff191614806117c957507f5b5e139f000000000000000000000000000000000000000000000000000000007bffffffffffffffffffffffffffffffffffffffffffffffffffffffff1916827bffffffffffffffffffffffffffffffffffffffffffffffffffffffff1916145b806117d957506117d88261211b565b5b9050919050565b6117e981612185565b611828576040517f08c379a000000000000000000000000000000000000000000000000000000000815260040161181f906133a6565b60405180910390fd5b50565b600033905090565b816004600083815260200190815260200160002060006101000a81548173ffffffffffffffffffffffffffffffffffffffff021916908373ffffffffffffffffffffffffffffffffffffffff160217905550808273ffffffffffffffffffffffffffffffffffffffff166118a683610e81565b73ffffffffffffffffffffffffffffffffffffffff167f8c5be1e5ebec7d5bd14f71427d1e84f3dd0314c0f7b2291e5b200ac8c7c3b92560405160405180910390a45050565b6000806118f883610e81565b90508073ffffffffffffffffffffffffffffffffffffffff168473ffffffffffffffffffffffffffffffffffffffff16148061193a5750611939818561166a565b5b8061197857508373ffffffffffffffffffffffffffffffffffffffff1661196084610569565b73ffffffffffffffffffffffffffffffffffffffff16145b91505092915050565b8273ffffffffffffffffffffffffffffffffffffffff166119a182610e81565b73ffffffffffffffffffffffffffffffffffffffff16146119f7576040517f08c379a00000000000000000000000000000000000000000000000000000000081526004016119ee9061352a565b60405180910390fd5b600073ffffffffffffffffffffffffffffffffffffffff168273ffffffffffffffffffffffffffffffffffffffff1603611a66576040517f08c379a0000000000000000000000000000000000000000000000000000000008152600401611a5d906135bc565b60405180910390fd5b611a7383838360016121c6565b8273ffffffffffffffffffffffffffffffffffffffff16611a9382610e81565b73ffffffffffffffffffffffffffffffffffffffff1614611ae9576040517f08c379a0000000000000000000000000000000000000000000000000000000008152600401611ae09061352a565b60405180910390fd5b6004600082815260200190815260200160002060006101000a81549073ffffffffffffffffffffffffffffffffffffffff02191690556001600360008573ffffffffffffffffffffffffffffffffffffffff1673ffffffffffffffffffffffffffffffffffffffff168152602001908152602001600020600082825403925050819055506001600360008473ffffffffffffffffffffffffffffffffffffffff1673ffffffffffffffffffffffffffffffffffffffff16815260200190815260200160002060008282540192505081905550816002600083815260200190815260200160002060006101000a81548173ffffffffffffffffffffffffffffffffffffffff021916908373ffffffffffffffffffffffffffffffffffffffff160217905550808273ffffffffffffffffffffffffffffffffffffffff168473ffffffffffffffffffffffffffffffffffffffff167fddf252ad1be2c89b69c2b068fc378daa952ba7f163c4a11628f55a4df523b3ef60405160405180910390a4611c7583838360016121cc565b505050565b600073ffffffffffffffffffffffffffffffffffffffff168273ffffffffffffffffffffffffffffffffffffffff1603611ce9576040517f08c379a0000000000000000000000000000000000000000000000000000000008152600401611ce090613628565b60405180910390fd5b611cf281612185565b15611d32576040517f08c379a0000000000000000000000000000000000000000000000000000000008152600401611d2990613694565b60405180910390fd5b611d406000838360016121c6565b611d4981612185565b15611d89576040517f08c379a0000000000000000000000000000000000000000000000000000000008152600401611d8090613694565b60405180910390fd5b6001600360008473ffffffffffffffffffffffffffffffffffffffff1673ffffffffffffffffffffffffffffffffffffffff16815260200190815260200160002060008282540192505081905550816002600083815260200190815260200160002060006101000a81548173ffffffffffffffffffffffffffffffffffffffff021916908373ffffffffffffffffffffffffffffffffffffffff160217905550808273ffffffffffffffffffffffffffffffffffffffff16600073ffffffffffffffffffffffffffffffffffffffff167fddf252ad1be2c89b69c2b068fc378daa952ba7f163c4a11628f55a4df523b3ef60405160405180910390a4611e936000838360016121cc565b5050565b60006002600083815260200190815260200160002060009054906101000a900473ffffffffffffffffffffffffffffffffffffffff169050919050565b8173ffffffffffffffffffffffffffffffffffffffff168373ffffffffffffffffffffffffffffffffffffffff1603611f42576040517f08c379a0000000000000000000000000000000000000000000000000000000008152600401611f3990613700565b60405180910390fd5b80600560008573ffffffffffffffffffffffffffffffffffffffff1673ffffffffffffffffffffffffffffffffffffffff16815260200190815260200160002060008473ffffffffffffffffffffffffffffffffffffffff1673ffffffffffffffffffffffffffffffffffffffff16815260200190815260200160002060006101000a81548160ff0219169083151502179055508173ffffffffffffffffffffffffffffffffffffffff168373ffffffffffffffffffffffffffffffffffffffff167f17307eab39ab6107e8899845ad3d59bd9653f200f220920489ca2b5937696c31836040516120339190612651565b60405180910390a3505050565b61204b848484611981565b612057848484846121d2565b612096576040517f08c379a000000000000000000000000000000000000000000000000000000000815260040161208d90613792565b60405180910390fd5b50505050565b606060405180602001604052806000815250905090565b60606120be826117e0565b60006120c861209c565b905060008151116120e85760405180602001604052806000815250612113565b806120f284612359565b604051602001612103929190613494565b6040516020818303038152906040525b915050919050565b60007f01ffc9a7000000000000000000000000000000000000000000000000000000007bffffffffffffffffffffffffffffffffffffffffffffffffffffffff1916827bffffffffffffffffffffffffffffffffffffffffffffffffffffffff1916149050919050565b60008073ffffffffffffffffffffffffffffffffffffffff166121a783611e97565b73ffffffffffffffffffffffffffffffffffffffff1614159050919050565b50505050565b50505050565b60006121f38473ffffffffffffffffffffffffffffffffffffffff16612427565b1561234c578373ffffffffffffffffffffffffffffffffffffffff1663150b7a0261221c61182b565b8786866040518563ffffffff1660e01b815260040161223e9493929190613807565b6020604051808303816000875af192505050801561227a57506040513d601f19601f820116820180604052508101906122779190613868565b60015b6122fc573d80600081146122aa576040519150601f19603f3d011682016040523d82523d6000602084013e6122af565b606091505b5060008151036122f4576040517f08c379a00000000000000000000000000000000000000000000000000000000081526004016122eb90613792565b60405180910390fd5b805181602001fd5b63150b7a0260e01b7bffffffffffffffffffffffffffffffffffffffffffffffffffffffff1916817bffffffffffffffffffffffffffffffffffffffffffffffffffffffff191614915050612351565b600190505b949350505050565b6060600060016123688461244a565b01905060008167ffffffffffffffff8111156123875761238661296d565b5b6040519080825280601f01601f1916602001820160405280156123b95781602001600182028036833780820191505090505b509050600082602001820190505b60011561241c578080600190039150507f3031323334353637383961626364656600000000000000000000000000000000600a86061a8153600a85816124105761240f613895565b5b049450600085036123c7575b819350505050919050565b6000808273ffffffffffffffffffffffffffffffffffffffff163b119050919050565b600080600090507a184f03e93ff9f4daa797ed6e38ed64bf6a1f01000000000000000083106124a8577a184f03e93ff9f4daa797ed6e38ed64bf6a1f010000000000000000838161249e5761249d613895565b5b0492506040810190505b6d04ee2d6d415b85acef810000000083106124e5576d04ee2d6d415b85acef810000000083816124db576124da613895565b5b0492506020810190505b662386f26fc10000831061251457662386f26fc10000838161250a57612509613895565b5b0492506010810190505b6305f5e100831061253d576305f5e100838161253357612532613895565b5b0492506008810190505b612710831061256257612710838161255857612557613895565b5b0492506004810190505b60648310612585576064838161257b5761257a613895565b5b0492506002810190505b600a8310612594576001810190505b80915050919050565b6000604051905090565b600080fd5b600080fd5b60007fffffffff0000000000000000000000000000000000000000000000000000000082169050919050565b6125e6816125b1565b81146125f157600080fd5b50565b600081359050612603816125dd565b92915050565b60006020828403121561261f5761261e6125a7565b5b600061262d848285016125f4565b91505092915050565b60008115159050919050565b61264b81612636565b82525050565b60006020820190506126666000830184612642565b92915050565b600081519050919050565b600082825260208201905092915050565b60005b838110156126a657808201518184015260208101905061268b565b60008484015250505050565b6000601f19601f8301169050919050565b60006126ce8261266c565b6126d88185612677565b93506126e8818560208601612688565b6126f1816126b2565b840191505092915050565b6000602082019050818103600083015261271681846126c3565b905092915050565b6000819050919050565b6127318161271e565b811461273c57600080fd5b50565b60008135905061274e81612728565b92915050565b60006020828403121561276a576127696125a7565b5b60006127788482850161273f565b91505092915050565b600073ffffffffffffffffffffffffffffffffffffffff82169050919050565b60006127ac82612781565b9050919050565b6127bc816127a1565b82525050565b60006020820190506127d760008301846127b3565b92915050565b6127e6816127a1565b81146127f157600080fd5b50565b600081359050612803816127dd565b92915050565b600080604083850312156128205761281f6125a7565b5b600061282e858286016127f4565b925050602061283f8582860161273f565b9150509250929050565b600080600060608486031215612862576128616125a7565b5b6000612870868287016127f4565b9350506020612881868287016127f4565b92505060406128928682870161273f565b9150509250925092565b6000602082840312156128b2576128b16125a7565b5b60006128c0848285016127f4565b91505092915050565b6128d28161271e565b82525050565b600060e0820190506128ed600083018a6128c9565b81810360208301526128ff81896126c3565b9050818103604083015261291381886126c3565b9050818103606083015261292781876126c3565b9050818103608083015261293b81866126c3565b905061294a60a08301856127b3565b61295760c08301846128c9565b98975050505050505050565b600080fd5b600080fd5b7f4e487b7100000000000000000000000000000000000000000000000000000000600052604160045260246000fd5b6129a5826126b2565b810181811067ffffffffffffffff821117156129c4576129c361296d565b5b80604052505050565b60006129d761259d565b90506129e3828261299c565b919050565b600067ffffffffffffffff821115612a0357612a0261296d565b5b612a0c826126b2565b9050602081019050919050565b82818337600083830152505050565b6000612a3b612a36846129e8565b6129cd565b905082815260208101848484011115612a5757612a56612968565b5b612a62848285612a19565b509392505050565b600082601f830112612a7f57612a7e612963565b5b8135612a8f848260208601612a28565b91505092915050565b60008060008060808587031215612ab257612ab16125a7565b5b600085013567ffffffffffffffff811115612ad057612acf6125ac565b5b612adc87828801612a6a565b945050602085013567ffffffffffffffff811115612afd57612afc6125ac565b5b612b0987828801612a6a565b935050604085013567ffffffffffffffff811115612b2a57612b296125ac565b5b612b3687828801612a6a565b925050606085013567ffffffffffffffff811115612b5757612b566125ac565b5b612b6387828801612a6a565b91505092959194509250565b6000602082019050612b8460008301846128c9565b92915050565b612b9381612636565b8114612b9e57600080fd5b50565b600081359050612bb081612b8a565b92915050565b60008060408385031215612bcd57612bcc6125a7565b5b6000612bdb858286016127f4565b9250506020612bec85828601612ba1565b9150509250929050565b600067ffffffffffffffff821115612c1157612c1061296d565b5b612c1a826126b2565b9050602081019050919050565b6000612c3a612c3584612bf6565b6129cd565b905082815260208101848484011115612c5657612c55612968565b5b612c61848285612a19565b509392505050565b600082601f830112612c7e57612c7d612963565b5b8135612c8e848260208601612c27565b91505092915050565b60008060008060808587031215612cb157612cb06125a7565b5b6000612cbf878288016127f4565b9450506020612cd0878288016127f4565b9350506040612ce18782880161273f565b925050606085013567ffffffffffffffff811115612d0257612d016125ac565b5b612d0e87828801612c69565b91505092959194509250565b60008060408385031215612d3157612d306125a7565b5b6000612d3f858286016127f4565b9250506020612d50858286016127f4565b9150509250929050565b7f4e487b7100000000000000000000000000000000000000000000000000000000600052602260045260246000fd5b60006002820490506001821680612da157607f821691505b602082108103612db457612db3612d5a565b5b50919050565b7f4552433732313a20617070726f76616c20746f2063757272656e74206f776e6560008201527f7200000000000000000000000000000000000000000000000000000000000000602082015250565b6000612e16602183612677565b9150612e2182612dba565b604082019050919050565b60006020820190508181036000830152612e4581612e09565b9050919050565b7f4552433732313a20617070726f76652063616c6c6572206973206e6f7420746f60008201527f6b656e206f776e6572206f7220617070726f76656420666f7220616c6c000000602082015250565b6000612ea8603d83612677565b9150612eb382612e4c565b604082019050919050565b60006020820190508181036000830152612ed781612e9b565b9050919050565b7f4552433732313a2063616c6c6572206973206e6f7420746f6b656e206f776e6560008201527f72206f7220617070726f76656400000000000000000000000000000000000000602082015250565b6000612f3a602d83612677565b9150612f4582612ede565b604082019050919050565b60006020820190508181036000830152612f6981612f2d565b9050919050565b7f4e487b7100000000000000000000000000000000000000000000000000000000600052601160045260246000fd5b6000612faa8261271e565b9150612fb58361271e565b9250828203905081811115612fcd57612fcc612f70565b5b92915050565b7f4e487b7100000000000000000000000000000000000000000000000000000000600052603260045260246000fd5b7f596f7520616c7265616479206861766520612073746f726520696e20706c616360008201527f6500000000000000000000000000000000000000000000000000000000000000602082015250565b600061305e602183612677565b915061306982613002565b604082019050919050565b6000602082019050818103600083015261308d81613051565b9050919050565b60008190508160005260206000209050919050565b60006020601f8301049050919050565b600082821b905092915050565b6000600883026130f67fffffffffffffffffffffffffffffffffffffffffffffffffffffffffffffffff826130b9565b61310086836130b9565b95508019841693508086168417925050509392505050565b6000819050919050565b600061313d6131386131338461271e565b613118565b61271e565b9050919050565b6000819050919050565b61315783613122565b61316b61316382613144565b8484546130c6565b825550505050565b600090565b613180613173565b61318b81848461314e565b505050565b5b818110156131af576131a4600082613178565b600181019050613191565b5050565b601f8211156131f4576131c581613094565b6131ce846130a9565b810160208510156131dd578190505b6131f16131e9856130a9565b830182613190565b50505b505050565b600082821c905092915050565b6000613217600019846008026131f9565b1980831691505092915050565b60006132308383613206565b9150826002028217905092915050565b6132498261266c565b67ffffffffffffffff8111156132625761326161296d565b5b61326c8254612d89565b6132778282856131b3565b600060209050601f8311600181146132aa5760008415613298578287015190505b6132a28582613224565b86555061330a565b601f1984166132b886613094565b60005b828110156132e0578489015182556001820191506020850194506020810190506132bb565b868310156132fd57848901516132f9601f891682613206565b8355505b6001600288020188555050505b505050505050565b600061331d8261271e565b91507fffffffffffffffffffffffffffffffffffffffffffffffffffffffffffffffff820361334f5761334e612f70565b5b600182019050919050565b7f4552433732313a20696e76616c696420746f6b656e2049440000000000000000600082015250565b6000613390601883612677565b915061339b8261335a565b602082019050919050565b600060208201905081810360008301526133bf81613383565b9050919050565b7f4552433732313a2061646472657373207a65726f206973206e6f74206120766160008201527f6c6964206f776e65720000000000000000000000000000000000000000000000602082015250565b6000613422602983612677565b915061342d826133c6565b604082019050919050565b6000602082019050818103600083015261345181613415565b9050919050565b600081905092915050565b600061346e8261266c565b6134788185613458565b9350613488818560208601612688565b80840191505092915050565b60006134a08285613463565b91506134ac8284613463565b91508190509392505050565b7f4552433732313a207472616e736665722066726f6d20696e636f72726563742060008201527f6f776e6572000000000000000000000000000000000000000000000000000000602082015250565b6000613514602583612677565b915061351f826134b8565b604082019050919050565b6000602082019050818103600083015261354381613507565b9050919050565b7f4552433732313a207472616e7366657220746f20746865207a65726f2061646460008201527f7265737300000000000000000000000000000000000000000000000000000000602082015250565b60006135a6602483612677565b91506135b18261354a565b604082019050919050565b600060208201905081810360008301526135d581613599565b9050919050565b7f4552433732313a206d696e7420746f20746865207a65726f2061646472657373600082015250565b6000613612602083612677565b915061361d826135dc565b602082019050919050565b6000602082019050818103600083015261364181613605565b9050919050565b7f4552433732313a20746f6b656e20616c7265616479206d696e74656400000000600082015250565b600061367e601c83612677565b915061368982613648565b602082019050919050565b600060208201905081810360008301526136ad81613671565b9050919050565b7f4552433732313a20617070726f766520746f2063616c6c657200000000000000600082015250565b60006136ea601983612677565b91506136f5826136b4565b602082019050919050565b60006020820190508181036000830152613719816136dd565b9050919050565b7f4552433732313a207472616e7366657220746f206e6f6e20455243373231526560008201527f63656976657220696d706c656d656e7465720000000000000000000000000000602082015250565b600061377c603283612677565b915061378782613720565b604082019050919050565b600060208201905081810360008301526137ab8161376f565b9050919050565b600081519050919050565b600082825260208201905092915050565b60006137d9826137b2565b6137e381856137bd565b93506137f3818560208601612688565b6137fc816126b2565b840191505092915050565b600060808201905061381c60008301876127b3565b61382960208301866127b3565b61383660408301856128c9565b818103606083015261384881846137ce565b905095945050505050565b600081519050613862816125dd565b92915050565b60006020828403121561387e5761387d6125a7565b5b600061388c84828501613853565b91505092915050565b7f4e487b7100000000000000000000000000000000000000000000000000000000600052601260045260246000fdfea2646970667358221220754c8d4ab3f9b3d4695266eebe55eebbecca0177f76d5027ad6885c1a0d1641364736f6c63430008120033",
  "linkReferences": {},
  "deployedLinkReferences": {}
}